{
  "_format": "hh-sol-artifact-1",
  "contractName": "IDToken",
  "sourceName": "contracts/IDToken.sol",
  "abi": [
    {
      "inputs": [],
      "stateMutability": "nonpayable",
      "type": "constructor"
    },
    {
      "anonymous": false,
      "inputs": [
        {
          "indexed": true,
          "internalType": "address",
          "name": "owner",
          "type": "address"
        },
        {
          "indexed": true,
          "internalType": "address",
          "name": "approved",
          "type": "address"
        },
        {
          "indexed": true,
          "internalType": "uint256",
          "name": "tokenId",
          "type": "uint256"
        }
      ],
      "name": "Approval",
      "type": "event"
    },
    {
      "anonymous": false,
      "inputs": [
        {
          "indexed": true,
          "internalType": "address",
          "name": "owner",
          "type": "address"
        },
        {
          "indexed": true,
          "internalType": "address",
          "name": "operator",
          "type": "address"
        },
        {
          "indexed": false,
          "internalType": "bool",
          "name": "approved",
          "type": "bool"
        }
      ],
      "name": "ApprovalForAll",
      "type": "event"
    },
    {
      "anonymous": false,
      "inputs": [
        {
          "indexed": true,
          "internalType": "address",
          "name": "previousOwner",
          "type": "address"
        },
        {
          "indexed": true,
          "internalType": "address",
          "name": "newOwner",
          "type": "address"
        }
      ],
      "name": "OwnershipTransferred",
      "type": "event"
    },
    {
      "anonymous": false,
      "inputs": [
        {
          "indexed": true,
          "internalType": "address",
          "name": "from",
          "type": "address"
        },
        {
          "indexed": true,
          "internalType": "address",
          "name": "to",
          "type": "address"
        },
        {
          "indexed": true,
          "internalType": "uint256",
          "name": "tokenId",
          "type": "uint256"
        }
      ],
      "name": "Transfer",
      "type": "event"
    },
    {
      "inputs": [
        {
          "internalType": "uint256",
          "name": "credentialId",
          "type": "uint256"
        },
        {
          "internalType": "bytes",
          "name": "pubkey",
          "type": "bytes"
        },
        {
          "internalType": "address",
          "name": "signer",
          "type": "address"
        }
      ],
      "name": "addCredential",
      "outputs": [],
      "stateMutability": "nonpayable",
      "type": "function"
    },
    {
      "inputs": [
        {
          "internalType": "address",
          "name": "to",
          "type": "address"
        },
        {
          "internalType": "uint256",
          "name": "tokenId",
          "type": "uint256"
        }
      ],
      "name": "approve",
      "outputs": [],
      "stateMutability": "nonpayable",
      "type": "function"
    },
    {
      "inputs": [
        {
          "internalType": "address",
          "name": "owner",
          "type": "address"
        }
      ],
      "name": "balanceOf",
      "outputs": [
        {
          "internalType": "uint256",
          "name": "",
          "type": "uint256"
        }
      ],
      "stateMutability": "view",
      "type": "function"
    },
    {
      "inputs": [
        {
          "internalType": "uint256",
          "name": "tokenId",
          "type": "uint256"
        }
      ],
      "name": "burn",
      "outputs": [],
      "stateMutability": "nonpayable",
      "type": "function"
    },
    {
      "inputs": [
        {
          "internalType": "uint256",
          "name": "tokenId",
          "type": "uint256"
        }
      ],
      "name": "exists",
      "outputs": [
        {
          "internalType": "bool",
          "name": "",
          "type": "bool"
        }
      ],
      "stateMutability": "view",
      "type": "function"
    },
    {
      "inputs": [
        {
          "internalType": "uint256",
          "name": "tokenId",
          "type": "uint256"
        }
      ],
      "name": "getApproved",
      "outputs": [
        {
          "internalType": "address",
          "name": "",
          "type": "address"
        }
      ],
      "stateMutability": "view",
      "type": "function"
    },
    {
      "inputs": [
        {
          "internalType": "address",
          "name": "owner",
          "type": "address"
        },
        {
          "internalType": "address",
          "name": "operator",
          "type": "address"
        }
      ],
      "name": "isApprovedForAll",
      "outputs": [
        {
          "internalType": "bool",
          "name": "",
          "type": "bool"
        }
      ],
      "stateMutability": "view",
      "type": "function"
    },
    {
      "inputs": [
        {
          "internalType": "address",
          "name": "to",
          "type": "address"
        },
        {
          "internalType": "string",
          "name": "uri",
          "type": "string"
        }
      ],
      "name": "issue",
      "outputs": [],
      "stateMutability": "nonpayable",
      "type": "function"
    },
    {
      "inputs": [],
      "name": "name",
      "outputs": [
        {
          "internalType": "string",
          "name": "",
          "type": "string"
        }
      ],
      "stateMutability": "view",
      "type": "function"
    },
    {
      "inputs": [],
      "name": "owner",
      "outputs": [
        {
          "internalType": "address",
          "name": "",
          "type": "address"
        }
      ],
      "stateMutability": "view",
      "type": "function"
    },
    {
      "inputs": [
        {
          "internalType": "uint256",
          "name": "tokenId",
          "type": "uint256"
        }
      ],
      "name": "ownerOf",
      "outputs": [
        {
          "internalType": "address",
          "name": "",
          "type": "address"
        }
      ],
      "stateMutability": "view",
      "type": "function"
    },
    {
      "inputs": [
        {
          "internalType": "uint256",
          "name": "credentialId",
          "type": "uint256"
        }
      ],
      "name": "pubKeyOf",
      "outputs": [
        {
          "internalType": "bytes",
          "name": "",
          "type": "bytes"
        }
      ],
      "stateMutability": "view",
      "type": "function"
    },
    {
      "inputs": [],
      "name": "renounceOwnership",
      "outputs": [],
      "stateMutability": "nonpayable",
      "type": "function"
    },
    {
      "inputs": [
        {
          "internalType": "uint256",
          "name": "tokenId",
          "type": "uint256"
        }
      ],
      "name": "revoke",
      "outputs": [],
      "stateMutability": "nonpayable",
      "type": "function"
    },
    {
      "inputs": [
        {
          "internalType": "address",
          "name": "owner",
          "type": "address"
        }
      ],
      "name": "revokeByAddress",
      "outputs": [],
      "stateMutability": "nonpayable",
      "type": "function"
    },
    {
      "inputs": [
        {
          "internalType": "uint256",
          "name": "credentialId",
          "type": "uint256"
        }
      ],
      "name": "revokeCredential",
      "outputs": [],
      "stateMutability": "nonpayable",
      "type": "function"
    },
    {
      "inputs": [
        {
          "internalType": "address",
          "name": "from",
          "type": "address"
        },
        {
          "internalType": "address",
          "name": "to",
          "type": "address"
        },
        {
          "internalType": "uint256",
          "name": "tokenId",
          "type": "uint256"
        }
      ],
      "name": "safeTransferFrom",
      "outputs": [],
      "stateMutability": "nonpayable",
      "type": "function"
    },
    {
      "inputs": [
        {
          "internalType": "address",
          "name": "from",
          "type": "address"
        },
        {
          "internalType": "address",
          "name": "to",
          "type": "address"
        },
        {
          "internalType": "uint256",
          "name": "tokenId",
          "type": "uint256"
        },
        {
          "internalType": "bytes",
          "name": "data",
          "type": "bytes"
        }
      ],
      "name": "safeTransferFrom",
      "outputs": [],
      "stateMutability": "nonpayable",
      "type": "function"
    },
    {
      "inputs": [
        {
          "internalType": "address",
          "name": "operator",
          "type": "address"
        },
        {
          "internalType": "bool",
          "name": "approved",
          "type": "bool"
        }
      ],
      "name": "setApprovalForAll",
      "outputs": [],
      "stateMutability": "nonpayable",
      "type": "function"
    },
    {
      "inputs": [
        {
          "internalType": "uint256",
          "name": "credentialId",
          "type": "uint256"
        }
      ],
      "name": "signerOf",
      "outputs": [
        {
          "internalType": "address",
          "name": "",
          "type": "address"
        }
      ],
      "stateMutability": "view",
      "type": "function"
    },
    {
      "inputs": [
        {
          "internalType": "bytes4",
          "name": "interfaceId",
          "type": "bytes4"
        }
      ],
      "name": "supportsInterface",
      "outputs": [
        {
          "internalType": "bool",
          "name": "",
          "type": "bool"
        }
      ],
      "stateMutability": "view",
      "type": "function"
    },
    {
      "inputs": [],
      "name": "symbol",
      "outputs": [
        {
          "internalType": "string",
          "name": "",
          "type": "string"
        }
      ],
      "stateMutability": "view",
      "type": "function"
    },
    {
      "inputs": [
        {
          "internalType": "address",
          "name": "owner",
          "type": "address"
        }
      ],
      "name": "tokenOf",
      "outputs": [
        {
          "internalType": "uint256",
          "name": "",
          "type": "uint256"
        }
      ],
      "stateMutability": "view",
      "type": "function"
    },
    {
      "inputs": [
        {
          "internalType": "uint256",
          "name": "tokenId",
          "type": "uint256"
        }
      ],
      "name": "tokenURI",
      "outputs": [
        {
          "internalType": "string",
          "name": "",
          "type": "string"
        }
      ],
      "stateMutability": "view",
      "type": "function"
    },
    {
      "inputs": [
        {
          "internalType": "address",
          "name": "from",
          "type": "address"
        },
        {
          "internalType": "address",
          "name": "to",
          "type": "address"
        },
        {
          "internalType": "uint256",
          "name": "tokenId",
          "type": "uint256"
        }
      ],
      "name": "transferFrom",
      "outputs": [],
      "stateMutability": "nonpayable",
      "type": "function"
    },
    {
      "inputs": [
        {
          "internalType": "address",
          "name": "newOwner",
          "type": "address"
        }
      ],
      "name": "transferOwnership",
      "outputs": [],
      "stateMutability": "nonpayable",
      "type": "function"
    },
    {
      "inputs": [
        {
          "internalType": "uint256",
          "name": "tokenId",
          "type": "uint256"
        },
        {
          "internalType": "string",
          "name": "uri",
          "type": "string"
        }
      ],
      "name": "updateURI",
      "outputs": [],
      "stateMutability": "nonpayable",
      "type": "function"
    }
  ],
  "bytecode": "0x60806040523480156200001157600080fd5b506040518060400160405280600781526020017f4944546f6b656e000000000000000000000000000000000000000000000000008152506040518060400160405280600281526020017f494400000000000000000000000000000000000000000000000000000000000081525081600090816200008f919062000412565b508060019081620000a1919062000412565b505050620000c4620000b8620000ca60201b60201c565b620000d260201b60201c565b620004f9565b600033905090565b6000600760009054906101000a900473ffffffffffffffffffffffffffffffffffffffff16905081600760006101000a81548173ffffffffffffffffffffffffffffffffffffffff021916908373ffffffffffffffffffffffffffffffffffffffff1602179055508173ffffffffffffffffffffffffffffffffffffffff168173ffffffffffffffffffffffffffffffffffffffff167f8be0079c531659141344cd1fd0a4f28419497f9722a3daafe3b4186f6b6457e060405160405180910390a35050565b600081519050919050565b7f4e487b7100000000000000000000000000000000000000000000000000000000600052604160045260246000fd5b7f4e487b7100000000000000000000000000000000000000000000000000000000600052602260045260246000fd5b600060028204905060018216806200021a57607f821691505b60208210810362000230576200022f620001d2565b5b50919050565b60008190508160005260206000209050919050565b60006020601f8301049050919050565b600082821b905092915050565b6000600883026200029a7fffffffffffffffffffffffffffffffffffffffffffffffffffffffffffffffff826200025b565b620002a686836200025b565b95508019841693508086168417925050509392505050565b6000819050919050565b6000819050919050565b6000620002f3620002ed620002e784620002be565b620002c8565b620002be565b9050919050565b6000819050919050565b6200030f83620002d2565b620003276200031e82620002fa565b84845462000268565b825550505050565b600090565b6200033e6200032f565b6200034b81848462000304565b505050565b5b8181101562000373576200036760008262000334565b60018101905062000351565b5050565b601f821115620003c2576200038c8162000236565b62000397846200024b565b81016020851015620003a7578190505b620003bf620003b6856200024b565b83018262000350565b50505b505050565b600082821c905092915050565b6000620003e760001984600802620003c7565b1980831691505092915050565b6000620004028383620003d4565b9150826002028217905092915050565b6200041d8262000198565b67ffffffffffffffff811115620004395762000438620001a3565b5b62000445825462000201565b6200045282828562000377565b600060209050601f8311600181146200048a576000841562000475578287015190505b620004818582620003f4565b865550620004f1565b601f1984166200049a8662000236565b60005b82811015620004c4578489015182556001820191506020850194506020810190506200049d565b86831015620004e45784890151620004e0601f891682620003d4565b8355505b6001600288020188555050505b505050505050565b613a8480620005096000396000f3fe608060405234801561001057600080fd5b50600436106101a95760003560e01c80635161fdf5116100f957806395d89b4111610097578063b88d4fde11610071578063b88d4fde146104c6578063c87b56dd146104e2578063e985e9c514610512578063f2fde38b14610542576101a9565b806395d89b4114610470578063a22cb4651461048e578063aaca0183146104aa576101a9565b806370a08231116100d357806370a08231146103e8578063715018a614610418578063885e2bb7146104225780638da5cb5b14610452576101a9565b80635161fdf51461036c5780636255d33a1461039c5780636352211e146103b8576101a9565b806320c5429b1161016657806342842e0e1161014057806342842e0e146102d457806342966c68146102f057806342ec38e21461030c5780634f558e791461033c576101a9565b806320c5429b1461028057806323b872dd1461029c57806331d41c69146102b8576101a9565b806301ffc9a7146101ae57806304b444d9146101de57806306fdde03146101fa578063081812fc14610218578063095ea7b3146102485780631b87278d14610264575b600080fd5b6101c860048036038101906101c3919061243a565b61055e565b6040516101d59190612482565b60405180910390f35b6101f860048036038101906101f39190612641565b610640565b005b610202610679565b60405161020f919061271c565b60405180910390f35b610232600480360381019061022d9190612774565b61070b565b60405161023f91906127b0565b60405180910390f35b610262600480360381019061025d91906127cb565b610751565b005b61027e60048036038101906102799190612774565b610868565b005b61029a60048036038101906102959190612774565b6108ec565b005b6102b660048036038101906102b1919061280b565b610900565b005b6102d260048036038101906102cd919061285e565b610949565b005b6102ee60048036038101906102e9919061280b565b6109cf565b005b61030a60048036038101906103059190612774565b610a18565b005b610326600480360381019061032191906128ba565b610a74565b60405161033391906128f6565b60405180910390f35b61035660048036038101906103519190612774565b610af4565b6040516103639190612482565b60405180910390f35b61038660048036038101906103819190612774565b610b06565b60405161039391906127b0565b60405180910390f35b6103b660048036038101906103b191906128ba565b610b1d565b005b6103d260048036038101906103cd9190612774565b610b3f565b6040516103df91906127b0565b60405180910390f35b61040260048036038101906103fd91906128ba565b610b56565b60405161040f91906128f6565b60405180910390f35b610420610c0d565b005b61043c60048036038101906104379190612774565b610c21565b6040516104499190612966565b60405180910390f35b61045a610c33565b60405161046791906127b0565b60405180910390f35b610478610c5d565b604051610485919061271c565b60405180910390f35b6104a860048036038101906104a391906129b4565b610cef565b005b6104c460048036038101906104bf9190612a95565b610d05565b005b6104e060048036038101906104db9190612b04565b610d26565b005b6104fc60048036038101906104f79190612774565b610d70565b604051610509919061271c565b60405180910390f35b61052c60048036038101906105279190612b87565b610d82565b6040516105399190612482565b60405180910390f35b61055c600480360381019061055791906128ba565b610e16565b005b60007f80ac58cd000000000000000000000000000000000000000000000000000000007bffffffffffffffffffffffffffffffffffffffffffffffffffffffff1916827bffffffffffffffffffffffffffffffffffffffffffffffffffffffff1916148061062957507f5b5e139f000000000000000000000000000000000000000000000000000000007bffffffffffffffffffffffffffffffffffffffffffffffffffffffff1916827bffffffffffffffffffffffffffffffffffffffffffffffffffffffff1916145b80610639575061063882610e99565b5b9050919050565b610648610f03565b60006106546008610f81565b90506106606008610f8f565b61066a8382610fa5565b6106748183610fc3565b505050565b60606000805461068890612bf6565b80601f01602080910402602001604051908101604052809291908181526020018280546106b490612bf6565b80156107015780601f106106d657610100808354040283529160200191610701565b820191906000526020600020905b8154815290600101906020018083116106e457829003601f168201915b5050505050905090565b600061071682610fd1565b6004600083815260200190815260200160002060009054906101000a900473ffffffffffffffffffffffffffffffffffffffff169050919050565b600061075c8261101c565b90508073ffffffffffffffffffffffffffffffffffffffff168373ffffffffffffffffffffffffffffffffffffffff16036107cc576040517f08c379a00000000000000000000000000000000000000000000000000000000081526004016107c390612c99565b60405180910390fd5b8073ffffffffffffffffffffffffffffffffffffffff166107eb6110a2565b73ffffffffffffffffffffffffffffffffffffffff16148061081a5750610819816108146110a2565b610d82565b5b610859576040517f08c379a000000000000000000000000000000000000000000000000000000000815260040161085090612d2b565b60405180910390fd5b61086383836110aa565b505050565b8061087281610b06565b73ffffffffffffffffffffffffffffffffffffffff163373ffffffffffffffffffffffffffffffffffffffff16146108df576040517f08c379a00000000000000000000000000000000000000000000000000000000081526004016108d690612dbd565b60405180910390fd5b6108e882611163565b5050565b6108f4610f03565b6108fd816111b9565b50565b6000600114610944576040517f08c379a000000000000000000000000000000000000000000000000000000000815260040161093b90612e29565b60405180910390fd5b505050565b8161095381610b3f565b73ffffffffffffffffffffffffffffffffffffffff163373ffffffffffffffffffffffffffffffffffffffff16146109c0576040517f08c379a00000000000000000000000000000000000000000000000000000000081526004016109b790612e95565b60405180910390fd5b6109ca8383610fc3565b505050565b6000600114610a13576040517f08c379a0000000000000000000000000000000000000000000000000000000008152600401610a0a90612e29565b60405180910390fd5b505050565b610a29610a236110a2565b826111c5565b610a68576040517f08c379a0000000000000000000000000000000000000000000000000000000008152600401610a5f90612f27565b60405180910390fd5b610a71816111b9565b50565b60008073ffffffffffffffffffffffffffffffffffffffff168273ffffffffffffffffffffffffffffffffffffffff1603610ae4576040517f08c379a0000000000000000000000000000000000000000000000000000000008152600401610adb90612fb9565b60405180910390fd5b610aed8261125a565b9050919050565b6000610aff826112a3565b9050919050565b600080610b12836112e4565b905080915050919050565b610b25610f03565b6000610b3082610a74565b9050610b3b816111b9565b5050565b600080610b4b83611395565b905080915050919050565b60008073ffffffffffffffffffffffffffffffffffffffff168273ffffffffffffffffffffffffffffffffffffffff1603610bc6576040517f08c379a0000000000000000000000000000000000000000000000000000000008152600401610bbd90612fb9565b60405180910390fd5b600360008373ffffffffffffffffffffffffffffffffffffffff1673ffffffffffffffffffffffffffffffffffffffff168152602001908152602001600020549050919050565b610c15610f03565b610c1f60006113d2565b565b6060610c2c82611498565b9050919050565b6000600760009054906101000a900473ffffffffffffffffffffffffffffffffffffffff16905090565b606060018054610c6c90612bf6565b80601f0160208091040260200160405190810160405280929190818152602001828054610c9890612bf6565b8015610ce55780601f10610cba57610100808354040283529160200191610ce5565b820191906000526020600020905b815481529060010190602001808311610cc857829003601f168201915b5050505050905090565b610d01610cfa6110a2565b838361153d565b5050565b610d0d610f03565b610d1783826116a9565b610d21838361176e565b505050565b6000600114610d6a576040517f08c379a0000000000000000000000000000000000000000000000000000000008152600401610d6190612e29565b60405180910390fd5b50505050565b6060610d7b82611793565b9050919050565b6000600560008473ffffffffffffffffffffffffffffffffffffffff1673ffffffffffffffffffffffffffffffffffffffff16815260200190815260200160002060008373ffffffffffffffffffffffffffffffffffffffff1673ffffffffffffffffffffffffffffffffffffffff16815260200190815260200160002060009054906101000a900460ff16905092915050565b610e1e610f03565b600073ffffffffffffffffffffffffffffffffffffffff168173ffffffffffffffffffffffffffffffffffffffff1603610e8d576040517f08c379a0000000000000000000000000000000000000000000000000000000008152600401610e849061304b565b60405180910390fd5b610e96816113d2565b50565b60007f01ffc9a7000000000000000000000000000000000000000000000000000000007bffffffffffffffffffffffffffffffffffffffffffffffffffffffff1916827bffffffffffffffffffffffffffffffffffffffffffffffffffffffff1916149050919050565b610f0b6110a2565b73ffffffffffffffffffffffffffffffffffffffff16610f29610c33565b73ffffffffffffffffffffffffffffffffffffffff1614610f7f576040517f08c379a0000000000000000000000000000000000000000000000000000000008152600401610f76906130b7565b60405180910390fd5b565b600081600001549050919050565b6001816000016000828254019250508190555050565b610fbf8282604051806020016040528060008152506118a5565b5050565b610fcd8282611900565b5050565b610fda816112a3565b611019576040517f08c379a000000000000000000000000000000000000000000000000000000000815260040161101090613123565b60405180910390fd5b50565b60008061102883611395565b9050600073ffffffffffffffffffffffffffffffffffffffff168173ffffffffffffffffffffffffffffffffffffffff1603611099576040517f08c379a000000000000000000000000000000000000000000000000000000000815260040161109090613123565b60405180910390fd5b80915050919050565b600033905090565b816004600083815260200190815260200160002060006101000a81548173ffffffffffffffffffffffffffffffffffffffff021916908373ffffffffffffffffffffffffffffffffffffffff160217905550808273ffffffffffffffffffffffffffffffffffffffff1661111d8361101c565b73ffffffffffffffffffffffffffffffffffffffff167f8c5be1e5ebec7d5bd14f71427d1e84f3dd0314c0f7b2291e5b200ac8c7c3b92560405160405180910390a45050565b6000600a600083815260200190815260200160002060006101000a81548173ffffffffffffffffffffffffffffffffffffffff021916908373ffffffffffffffffffffffffffffffffffffffff16021790555050565b6111c28161196d565b50565b6000806111d18361101c565b90508073ffffffffffffffffffffffffffffffffffffffff168473ffffffffffffffffffffffffffffffffffffffff16148061121357506112128185610d82565b5b8061125157508373ffffffffffffffffffffffffffffffffffffffff166112398461070b565b73ffffffffffffffffffffffffffffffffffffffff16145b91505092915050565b6000600960008373ffffffffffffffffffffffffffffffffffffffff1673ffffffffffffffffffffffffffffffffffffffff168152602001908152602001600020549050919050565b60008073ffffffffffffffffffffffffffffffffffffffff166112c583611395565b73ffffffffffffffffffffffffffffffffffffffff1614159050919050565b600080600a600084815260200190815260200160002060009054906101000a900473ffffffffffffffffffffffffffffffffffffffff169050600073ffffffffffffffffffffffffffffffffffffffff168173ffffffffffffffffffffffffffffffffffffffff160361138c576040517f08c379a00000000000000000000000000000000000000000000000000000000081526004016113839061318f565b60405180910390fd5b80915050919050565b60006002600083815260200190815260200160002060009054906101000a900473ffffffffffffffffffffffffffffffffffffffff169050919050565b6000600760009054906101000a900473ffffffffffffffffffffffffffffffffffffffff16905081600760006101000a81548173ffffffffffffffffffffffffffffffffffffffff021916908373ffffffffffffffffffffffffffffffffffffffff1602179055508173ffffffffffffffffffffffffffffffffffffffff168173ffffffffffffffffffffffffffffffffffffffff167f8be0079c531659141344cd1fd0a4f28419497f9722a3daafe3b4186f6b6457e060405160405180910390a35050565b6060600b600083815260200190815260200160002080546114b890612bf6565b80601f01602080910402602001604051908101604052809291908181526020018280546114e490612bf6565b80156115315780601f1061150657610100808354040283529160200191611531565b820191906000526020600020905b81548152906001019060200180831161151457829003601f168201915b50505050509050919050565b8173ffffffffffffffffffffffffffffffffffffffff168373ffffffffffffffffffffffffffffffffffffffff16036115ab576040517f08c379a00000000000000000000000000000000000000000000000000000000081526004016115a2906131fb565b60405180910390fd5b80600560008573ffffffffffffffffffffffffffffffffffffffff1673ffffffffffffffffffffffffffffffffffffffff16815260200190815260200160002060008473ffffffffffffffffffffffffffffffffffffffff1673ffffffffffffffffffffffffffffffffffffffff16815260200190815260200160002060006101000a81548160ff0219169083151502179055508173ffffffffffffffffffffffffffffffffffffffff168373ffffffffffffffffffffffffffffffffffffffff167f17307eab39ab6107e8899845ad3d59bd9653f200f220920489ca2b5937696c318360405161169c9190612482565b60405180910390a3505050565b600073ffffffffffffffffffffffffffffffffffffffff168173ffffffffffffffffffffffffffffffffffffffff1603611718576040517f08c379a000000000000000000000000000000000000000000000000000000000815260040161170f90613267565b60405180910390fd5b80600a600084815260200190815260200160002060006101000a81548173ffffffffffffffffffffffffffffffffffffffff021916908373ffffffffffffffffffffffffffffffffffffffff1602179055505050565b80600b6000848152602001908152602001600020908161178e9190613433565b505050565b606061179e82610fd1565b60006006600084815260200190815260200160002080546117be90612bf6565b80601f01602080910402602001604051908101604052809291908181526020018280546117ea90612bf6565b80156118375780601f1061180c57610100808354040283529160200191611837565b820191906000526020600020905b81548152906001019060200180831161181a57829003601f168201915b5050505050905060006118486119c0565b9050600081510361185d5781925050506118a0565b60008251111561189257808260405160200161187a929190613541565b604051602081830303815290604052925050506118a0565b61189b846119d7565b925050505b919050565b6118af8383611a3f565b6118bc6000848484611b0f565b6118fb576040517f08c379a00000000000000000000000000000000000000000000000000000000081526004016118f2906135d7565b60405180910390fd5b505050565b611909826112a3565b611948576040517f08c379a000000000000000000000000000000000000000000000000000000000815260040161193f90613669565b60405180910390fd5b8060066000848152602001908152602001600020908161196891906136e4565b505050565b61197681611c96565b600060066000838152602001908152602001600020805461199690612bf6565b9050146119bd576006600082815260200190815260200160002060006119bc9190612371565b5b50565b606060405180602001604052806000815250905090565b60606119e282610fd1565b60006119ec6119c0565b90506000815111611a0c5760405180602001604052806000815250611a37565b80611a1684611de4565b604051602001611a27929190613541565b6040516020818303038152906040525b915050919050565b8173ffffffffffffffffffffffffffffffffffffffff16611a67611a628461125a565b611395565b73ffffffffffffffffffffffffffffffffffffffff1603611abd576040517f08c379a0000000000000000000000000000000000000000000000000000000008152600401611ab490613802565b60405180910390fd5b611ac78282611eb2565b80600960008473ffffffffffffffffffffffffffffffffffffffff1673ffffffffffffffffffffffffffffffffffffffff168152602001908152602001600020819055505050565b6000611b308473ffffffffffffffffffffffffffffffffffffffff166120cf565b15611c89578373ffffffffffffffffffffffffffffffffffffffff1663150b7a02611b596110a2565b8786866040518563ffffffff1660e01b8152600401611b7b9493929190613822565b6020604051808303816000875af1925050508015611bb757506040513d601f19601f82011682018060405250810190611bb49190613883565b60015b611c39573d8060008114611be7576040519150601f19603f3d011682016040523d82523d6000602084013e611bec565b606091505b506000815103611c31576040517f08c379a0000000000000000000000000000000000000000000000000000000008152600401611c28906135d7565b60405180910390fd5b805181602001fd5b63150b7a0260e01b7bffffffffffffffffffffffffffffffffffffffffffffffffffffffff1916817bffffffffffffffffffffffffffffffffffffffffffffffffffffffff191614915050611c8e565b600190505b949350505050565b6000611ca18261101c565b9050611cb18160008460016120f2565b611cba8261101c565b90506004600083815260200190815260200160002060006101000a81549073ffffffffffffffffffffffffffffffffffffffff02191690556001600360008373ffffffffffffffffffffffffffffffffffffffff1673ffffffffffffffffffffffffffffffffffffffff168152602001908152602001600020600082825403925050819055506002600083815260200190815260200160002060006101000a81549073ffffffffffffffffffffffffffffffffffffffff021916905581600073ffffffffffffffffffffffffffffffffffffffff168273ffffffffffffffffffffffffffffffffffffffff167fddf252ad1be2c89b69c2b068fc378daa952ba7f163c4a11628f55a4df523b3ef60405160405180910390a4611de0816000846001612218565b5050565b606060006001611df38461221e565b01905060008167ffffffffffffffff811115611e1257611e11612516565b5b6040519080825280601f01601f191660200182016040528015611e445781602001600182028036833780820191505090505b509050600082602001820190505b600115611ea7578080600190039150507f3031323334353637383961626364656600000000000000000000000000000000600a86061a8153600a8581611e9b57611e9a6138b0565b5b04945060008503611e52575b819350505050919050565b600073ffffffffffffffffffffffffffffffffffffffff168273ffffffffffffffffffffffffffffffffffffffff1603611f21576040517f08c379a0000000000000000000000000000000000000000000000000000000008152600401611f189061392b565b60405180910390fd5b611f2a816112a3565b15611f6a576040517f08c379a0000000000000000000000000000000000000000000000000000000008152600401611f6190613997565b60405180910390fd5b611f786000838360016120f2565b611f81816112a3565b15611fc1576040517f08c379a0000000000000000000000000000000000000000000000000000000008152600401611fb890613997565b60405180910390fd5b6001600360008473ffffffffffffffffffffffffffffffffffffffff1673ffffffffffffffffffffffffffffffffffffffff16815260200190815260200160002060008282540192505081905550816002600083815260200190815260200160002060006101000a81548173ffffffffffffffffffffffffffffffffffffffff021916908373ffffffffffffffffffffffffffffffffffffffff160217905550808273ffffffffffffffffffffffffffffffffffffffff16600073ffffffffffffffffffffffffffffffffffffffff167fddf252ad1be2c89b69c2b068fc378daa952ba7f163c4a11628f55a4df523b3ef60405160405180910390a46120cb600083836001612218565b5050565b6000808273ffffffffffffffffffffffffffffffffffffffff163b119050919050565b600181111561221257600073ffffffffffffffffffffffffffffffffffffffff168473ffffffffffffffffffffffffffffffffffffffff16146121865780600360008673ffffffffffffffffffffffffffffffffffffffff1673ffffffffffffffffffffffffffffffffffffffff168152602001908152602001600020600082825461217e91906139e6565b925050819055505b600073ffffffffffffffffffffffffffffffffffffffff168373ffffffffffffffffffffffffffffffffffffffff16146122115780600360008573ffffffffffffffffffffffffffffffffffffffff1673ffffffffffffffffffffffffffffffffffffffff16815260200190815260200160002060008282546122099190613a1a565b925050819055505b5b50505050565b50505050565b600080600090507a184f03e93ff9f4daa797ed6e38ed64bf6a1f010000000000000000831061227c577a184f03e93ff9f4daa797ed6e38ed64bf6a1f0100000000000000008381612272576122716138b0565b5b0492506040810190505b6d04ee2d6d415b85acef810000000083106122b9576d04ee2d6d415b85acef810000000083816122af576122ae6138b0565b5b0492506020810190505b662386f26fc1000083106122e857662386f26fc1000083816122de576122dd6138b0565b5b0492506010810190505b6305f5e1008310612311576305f5e1008381612307576123066138b0565b5b0492506008810190505b612710831061233657612710838161232c5761232b6138b0565b5b0492506004810190505b60648310612359576064838161234f5761234e6138b0565b5b0492506002810190505b600a8310612368576001810190505b80915050919050565b50805461237d90612bf6565b6000825580601f1061238f57506123ae565b601f0160209004906000526020600020908101906123ad91906123b1565b5b50565b5b808211156123ca5760008160009055506001016123b2565b5090565b6000604051905090565b600080fd5b600080fd5b60007fffffffff0000000000000000000000000000000000000000000000000000000082169050919050565b612417816123e2565b811461242257600080fd5b50565b6000813590506124348161240e565b92915050565b6000602082840312156124505761244f6123d8565b5b600061245e84828501612425565b91505092915050565b60008115159050919050565b61247c81612467565b82525050565b60006020820190506124976000830184612473565b92915050565b600073ffffffffffffffffffffffffffffffffffffffff82169050919050565b60006124c88261249d565b9050919050565b6124d8816124bd565b81146124e357600080fd5b50565b6000813590506124f5816124cf565b92915050565b600080fd5b600080fd5b6000601f19601f8301169050919050565b7f4e487b7100000000000000000000000000000000000000000000000000000000600052604160045260246000fd5b61254e82612505565b810181811067ffffffffffffffff8211171561256d5761256c612516565b5b80604052505050565b60006125806123ce565b905061258c8282612545565b919050565b600067ffffffffffffffff8211156125ac576125ab612516565b5b6125b582612505565b9050602081019050919050565b82818337600083830152505050565b60006125e46125df84612591565b612576565b905082815260208101848484011115612600576125ff612500565b5b61260b8482856125c2565b509392505050565b600082601f830112612628576126276124fb565b5b81356126388482602086016125d1565b91505092915050565b60008060408385031215612658576126576123d8565b5b6000612666858286016124e6565b925050602083013567ffffffffffffffff811115612687576126866123dd565b5b61269385828601612613565b9150509250929050565b600081519050919050565b600082825260208201905092915050565b60005b838110156126d75780820151818401526020810190506126bc565b60008484015250505050565b60006126ee8261269d565b6126f881856126a8565b93506127088185602086016126b9565b61271181612505565b840191505092915050565b6000602082019050818103600083015261273681846126e3565b905092915050565b6000819050919050565b6127518161273e565b811461275c57600080fd5b50565b60008135905061276e81612748565b92915050565b60006020828403121561278a576127896123d8565b5b60006127988482850161275f565b91505092915050565b6127aa816124bd565b82525050565b60006020820190506127c560008301846127a1565b92915050565b600080604083850312156127e2576127e16123d8565b5b60006127f0858286016124e6565b92505060206128018582860161275f565b9150509250929050565b600080600060608486031215612824576128236123d8565b5b6000612832868287016124e6565b9350506020612843868287016124e6565b92505060406128548682870161275f565b9150509250925092565b60008060408385031215612875576128746123d8565b5b60006128838582860161275f565b925050602083013567ffffffffffffffff8111156128a4576128a36123dd565b5b6128b085828601612613565b9150509250929050565b6000602082840312156128d0576128cf6123d8565b5b60006128de848285016124e6565b91505092915050565b6128f08161273e565b82525050565b600060208201905061290b60008301846128e7565b92915050565b600081519050919050565b600082825260208201905092915050565b600061293882612911565b612942818561291c565b93506129528185602086016126b9565b61295b81612505565b840191505092915050565b60006020820190508181036000830152612980818461292d565b905092915050565b61299181612467565b811461299c57600080fd5b50565b6000813590506129ae81612988565b92915050565b600080604083850312156129cb576129ca6123d8565b5b60006129d9858286016124e6565b92505060206129ea8582860161299f565b9150509250929050565b600067ffffffffffffffff821115612a0f57612a0e612516565b5b612a1882612505565b9050602081019050919050565b6000612a38612a33846129f4565b612576565b905082815260208101848484011115612a5457612a53612500565b5b612a5f8482856125c2565b509392505050565b600082601f830112612a7c57612a7b6124fb565b5b8135612a8c848260208601612a25565b91505092915050565b600080600060608486031215612aae57612aad6123d8565b5b6000612abc8682870161275f565b935050602084013567ffffffffffffffff811115612add57612adc6123dd565b5b612ae986828701612a67565b9250506040612afa868287016124e6565b9150509250925092565b60008060008060808587031215612b1e57612b1d6123d8565b5b6000612b2c878288016124e6565b9450506020612b3d878288016124e6565b9350506040612b4e8782880161275f565b925050606085013567ffffffffffffffff811115612b6f57612b6e6123dd565b5b612b7b87828801612a67565b91505092959194509250565b60008060408385031215612b9e57612b9d6123d8565b5b6000612bac858286016124e6565b9250506020612bbd858286016124e6565b9150509250929050565b7f4e487b7100000000000000000000000000000000000000000000000000000000600052602260045260246000fd5b60006002820490506001821680612c0e57607f821691505b602082108103612c2157612c20612bc7565b5b50919050565b7f4552433732313a20617070726f76616c20746f2063757272656e74206f776e6560008201527f7200000000000000000000000000000000000000000000000000000000000000602082015250565b6000612c836021836126a8565b9150612c8e82612c27565b604082019050919050565b60006020820190508181036000830152612cb281612c76565b9050919050565b7f4552433732313a20617070726f76652063616c6c6572206973206e6f7420746f60008201527f6b656e206f776e6572206f7220617070726f76656420666f7220616c6c000000602082015250565b6000612d15603d836126a8565b9150612d2082612cb9565b604082019050919050565b60006020820190508181036000830152612d4481612d08565b9050919050565b7f4d7573742062652063616c6c65642062792063726564656e7469616c2069737360008201527f7565722f7369676e657200000000000000000000000000000000000000000000602082015250565b6000612da7602a836126a8565b9150612db282612d4b565b604082019050919050565b60006020820190508181036000830152612dd681612d9a565b9050919050565b7f43616e6e6f74207472616e7366657220494420546f6b656e0000000000000000600082015250565b6000612e136018836126a8565b9150612e1e82612ddd565b602082019050919050565b60006020820190508181036000830152612e4281612e06565b9050919050565b7f4d7573742062652063616c6c656420627920746f6b656e20686f6c6465720000600082015250565b6000612e7f601e836126a8565b9150612e8a82612e49565b602082019050919050565b60006020820190508181036000830152612eae81612e72565b9050919050565b7f4552433732313a2063616c6c6572206973206e6f7420746f6b656e206f776e6560008201527f72206f7220617070726f76656400000000000000000000000000000000000000602082015250565b6000612f11602d836126a8565b9150612f1c82612eb5565b604082019050919050565b60006020820190508181036000830152612f4081612f04565b9050919050565b7f4552433732313a2061646472657373207a65726f206973206e6f74206120766160008201527f6c6964206f776e65720000000000000000000000000000000000000000000000602082015250565b6000612fa36029836126a8565b9150612fae82612f47565b604082019050919050565b60006020820190508181036000830152612fd281612f96565b9050919050565b7f4f776e61626c653a206e6577206f776e657220697320746865207a65726f206160008201527f6464726573730000000000000000000000000000000000000000000000000000602082015250565b60006130356026836126a8565b915061304082612fd9565b604082019050919050565b6000602082019050818103600083015261306481613028565b9050919050565b7f4f776e61626c653a2063616c6c6572206973206e6f7420746865206f776e6572600082015250565b60006130a16020836126a8565b91506130ac8261306b565b602082019050919050565b600060208201905081810360008301526130d081613094565b9050919050565b7f4552433732313a20696e76616c696420746f6b656e2049440000000000000000600082015250565b600061310d6018836126a8565b9150613118826130d7565b602082019050919050565b6000602082019050818103600083015261313c81613100565b9050919050565b7f496e76616c6964207369676e6572000000000000000000000000000000000000600082015250565b6000613179600e836126a8565b915061318482613143565b602082019050919050565b600060208201905081810360008301526131a88161316c565b9050919050565b7f4552433732313a20617070726f766520746f2063616c6c657200000000000000600082015250565b60006131e56019836126a8565b91506131f0826131af565b602082019050919050565b60006020820190508181036000830152613214816131d8565b9050919050565b7f496e76616c696420616464726573730000000000000000000000000000000000600082015250565b6000613251600f836126a8565b915061325c8261321b565b602082019050919050565b6000602082019050818103600083015261328081613244565b9050919050565b60008190508160005260206000209050919050565b60006020601f8301049050919050565b600082821b905092915050565b6000600883026132e97fffffffffffffffffffffffffffffffffffffffffffffffffffffffffffffffff826132ac565b6132f386836132ac565b95508019841693508086168417925050509392505050565b6000819050919050565b600061333061332b6133268461273e565b61330b565b61273e565b9050919050565b6000819050919050565b61334a83613315565b61335e61335682613337565b8484546132b9565b825550505050565b600090565b613373613366565b61337e818484613341565b505050565b5b818110156133a25761339760008261336b565b600181019050613384565b5050565b601f8211156133e7576133b881613287565b6133c18461329c565b810160208510156133d0578190505b6133e46133dc8561329c565b830182613383565b50505b505050565b600082821c905092915050565b600061340a600019846008026133ec565b1980831691505092915050565b600061342383836133f9565b9150826002028217905092915050565b61343c82612911565b67ffffffffffffffff81111561345557613454612516565b5b61345f8254612bf6565b61346a8282856133a6565b600060209050601f83116001811461349d576000841561348b578287015190505b6134958582613417565b8655506134fd565b601f1984166134ab86613287565b60005b828110156134d3578489015182556001820191506020850194506020810190506134ae565b868310156134f057848901516134ec601f8916826133f9565b8355505b6001600288020188555050505b505050505050565b600081905092915050565b600061351b8261269d565b6135258185613505565b93506135358185602086016126b9565b80840191505092915050565b600061354d8285613510565b91506135598284613510565b91508190509392505050565b7f4552433732313a207472616e7366657220746f206e6f6e20455243373231526560008201527f63656976657220696d706c656d656e7465720000000000000000000000000000602082015250565b60006135c16032836126a8565b91506135cc82613565565b604082019050919050565b600060208201905081810360008301526135f0816135b4565b9050919050565b7f45524337323155524953746f726167653a2055524920736574206f66206e6f6e60008201527f6578697374656e7420746f6b656e000000000000000000000000000000000000602082015250565b6000613653602e836126a8565b915061365e826135f7565b604082019050919050565b6000602082019050818103600083015261368281613646565b9050919050565b60008190508160005260206000209050919050565b601f8211156136df576136b081613689565b6136b98461329c565b810160208510156136c8578190505b6136dc6136d48561329c565b830182613383565b50505b505050565b6136ed8261269d565b67ffffffffffffffff81111561370657613705612516565b5b6137108254612bf6565b61371b82828561369e565b600060209050601f83116001811461374e576000841561373c578287015190505b6137468582613417565b8655506137ae565b601f19841661375c86613689565b60005b828110156137845784890151825560018201915060208501945060208101905061375f565b868310156137a1578489015161379d601f8916826133f9565b8355505b6001600288020188555050505b505050505050565b7f4164647265737320616c72656164792068617320746f6b656e00000000000000600082015250565b60006137ec6019836126a8565b91506137f7826137b6565b602082019050919050565b6000602082019050818103600083015261381b816137df565b9050919050565b600060808201905061383760008301876127a1565b61384460208301866127a1565b61385160408301856128e7565b8181036060830152613863818461292d565b905095945050505050565b60008151905061387d8161240e565b92915050565b600060208284031215613899576138986123d8565b5b60006138a78482850161386e565b91505092915050565b7f4e487b7100000000000000000000000000000000000000000000000000000000600052601260045260246000fd5b7f4552433732313a206d696e7420746f20746865207a65726f2061646472657373600082015250565b60006139156020836126a8565b9150613920826138df565b602082019050919050565b6000602082019050818103600083015261394481613908565b9050919050565b7f4552433732313a20746f6b656e20616c7265616479206d696e74656400000000600082015250565b6000613981601c836126a8565b915061398c8261394b565b602082019050919050565b600060208201905081810360008301526139b081613974565b9050919050565b7f4e487b7100000000000000000000000000000000000000000000000000000000600052601160045260246000fd5b60006139f18261273e565b91506139fc8361273e565b9250828203905081811115613a1457613a136139b7565b5b92915050565b6000613a258261273e565b9150613a308361273e565b9250828201905080821115613a4857613a476139b7565b5b9291505056fea2646970667358221220ee056696d37dc187092e2c191425001941a6b36f730e1a29b371c1928f2dad7364736f6c63430008110033",
  "linkReferences": {},
  "deployedLinkReferences": {}
}